{
  "contractName": "Certification",
  "abi": [
    {
      "inputs": [
        {
          "internalType": "contract Institution",
          "name": "_institution",
          "type": "address"
        }
      ],
      "stateMutability": "nonpayable",
      "type": "constructor"
    },
    {
      "anonymous": false,
      "inputs": [
        {
          "indexed": false,
          "internalType": "bytes32",
          "name": "_certificateId",
          "type": "bytes32"
        }
      ],
      "name": "certificateGenerated",
      "type": "event"
    },
    {
      "anonymous": false,
      "inputs": [
        {
          "indexed": false,
          "internalType": "bytes32",
          "name": "_certificateId",
          "type": "bytes32"
        }
      ],
      "name": "certificateRevoked",
      "type": "event"
    },
    {
      "inputs": [],
      "name": "institution",
      "outputs": [
        {
          "internalType": "contract Institution",
          "name": "",
          "type": "address"
        }
      ],
      "stateMutability": "view",
      "type": "function",
      "constant": true
    },
    {
      "inputs": [],
      "name": "owner",
      "outputs": [
        {
          "internalType": "address",
          "name": "",
          "type": "address"
        }
      ],
      "stateMutability": "view",
      "type": "function",
      "constant": true
    },
    {
      "inputs": [
        {
          "internalType": "string",
          "name": "_id",
          "type": "string"
        },
        {
          "internalType": "string",
          "name": "_candidate_name",
          "type": "string"
        },
        {
          "internalType": "uint256",
          "name": "_course_index",
          "type": "uint256"
        },
        {
          "internalType": "string",
          "name": "_creation_date",
          "type": "string"
        }
      ],
      "name": "generateCertificate",
      "outputs": [],
      "stateMutability": "nonpayable",
      "type": "function"
    },
    {
      "inputs": [
        {
          "internalType": "string",
          "name": "_id",
          "type": "string"
        }
      ],
      "name": "getData",
      "outputs": [
        {
          "internalType": "string",
          "name": "",
          "type": "string"
        },
        {
          "internalType": "string",
          "name": "",
          "type": "string"
        },
        {
          "internalType": "string",
          "name": "",
          "type": "string"
        },
        {
          "internalType": "string",
          "name": "",
          "type": "string"
        },
        {
          "internalType": "string",
          "name": "",
          "type": "string"
        },
        {
          "internalType": "string",
          "name": "",
          "type": "string"
        },
        {
          "internalType": "bool",
          "name": "",
          "type": "bool"
        }
      ],
      "stateMutability": "view",
      "type": "function",
      "constant": true
    },
    {
      "inputs": [
        {
          "internalType": "string",
          "name": "_id",
          "type": "string"
        }
      ],
      "name": "revokeCertificate",
      "outputs": [],
      "stateMutability": "nonpayable",
      "type": "function"
    }
  ],
  "bytecode": "0x60803461007a57601f610e6b38819003918201601f19168301916001600160401b0383118484101761007f5780849260209460405283398101031261007a57516001600160a01b0381169081900361007a5760018060a01b0319338160005416176000556001541617600155604051610dd590816100968239f35b600080fd5b634e487b7160e01b600052604160045260246000fdfe60806040526004361015610013575b600080fd5b60003560e01c8063142e1542146100775780638da5cb5b1461006e578063a0e1995e14610065578063ae55c8881461005c5763d1384eb61461005457600080fd5b61000e6106f4565b5061000e6105ee565b5061000e610300565b5061000e6102d6565b3461000e577f222e6f0e7dd20e77993dc592413db91f20cfba6c1833b91ee72aeeb0c2dc99ec61016e61010d6100ac366102a9565b6001805461010891906100cf906001600160a01b03165b6001600160a01b031690565b604051632cd4338f60e21b815233600482015290602090829060249082905afa9081156101a1575b600091610173575b50151514610743565b610d3f565b61013761012f6002610129846000526002602052604060002090565b0161085e565b511515610d53565b61015e6006610150836000526002602052604060002090565b01805460ff19166001179055565b6040519081529081906020820190565b0390a1005b610194915060203d811161019a575b61018c8183610208565b81019061071e565b876100ff565b503d610182565b6101a9610736565b6100f7565b50634e487b7160e01b600052604160045260246000fd5b60e081019081106001600160401b038211176101e057604052565b6101e86101ae565b604052565b602081019081106001600160401b038211176101e057604052565b90601f801991011681019081106001600160401b038211176101e057604052565b60405190610236826101c5565b565b6020906001600160401b038111610255575b601f01601f19160190565b61025d6101ae565b61024a565b81601f8201121561000e5780359061027982610238565b926102876040519485610208565b8284526020838301011161000e57816000926020809301838601378301015290565b602060031982011261000e57600435906001600160401b03821161000e576102d391600401610262565b90565b503461000e57600036600319011261000e576000546040516001600160a01b039091168152602090f35b503461000e57608036600319011261000e576001600160401b036004803582811161000e576103329036908301610262565b60243583811161000e576103499036908401610262565b6044359060643594851161000e5761043961016e9461015e9360006103927ff54e0f0055ffae318a21890316ed523f8a60aa59aaa279dfdcae7176155ec0db9936908501610262565b6001549093906103f4906103ae906001600160a01b03166100c3565b604051632cd4338f60e21b815233848201908152919a916101089160019160209082908f9082908190850103915afa90811561050e575b87916104f05750151514610743565b9761041861041160026101298c6000526002602052604060002090565b5115610879565b604051637c0edcdf60e01b8152339281019283529586928391829160200190565b03915afa9182156104e3575b6000918293839584916104b0575b50908161046561046a93518310610a37565b610a7a565b5151610474610229565b958652602086015260408501526060840152608083015260a0820152600060c08201526104ab836000526002602052604060002090565b610bd4565b919390506104d692955061046a94503d8091833e6104ce8183610208565b810190610918565b9095919492939192610453565b6104eb610736565b610445565b610508915060203d811161019a5761018c8183610208565b386100ff565b610516610736565b6103e5565b918091926000905b82821061053b575011610534575050565b6000910152565b91508060209183015181860152018291610523565b906020916105698151809281855285808601910161051b565b601f01601f1916010190565b95926105e6946105bc6105ca926105ae6105d8966105a060c09b979d9e9d60e08e8181520190610550565b8c810360208e015290610550565b908a820360408c0152610550565b9088820360608a0152610550565b908682036080880152610550565b9084820360a0860152610550565b931515910152565b503461000e57610600610108366102a9565b8060005260026020526040600020906106f060405161061e816101c5565b6040516106368161062f81886107c8565b0382610208565b81526106446001850161085e565b92602082019384526106586002860161085e565b946040830195865261066c6003820161085e565b92606081019384526106e36106836004840161085e565b91608081019283526106d161012f60026101296106b760066106a760058b0161085e565b9960a088019a8b52015460ff1690565b151560c08601908152986000526002602052604060002090565b51965197519451915192519351151590565b9360405197889788610575565b0390f35b503461000e57600036600319011261000e576001546040516001600160a01b039091168152602090f35b9081602091031261000e5751801515810361000e5790565b506040513d6000823e3d90fd5b1561074a57565b606460405162461bcd60e51b815260206004820152602060248201527f496e73746974757465206163636f756e7420646f6573206e6f742065786973746044820152fd5b90600182811c921680156107be575b60208310146107a857565b634e487b7160e01b600052602260045260246000fd5b91607f169161079d565b90600092918054916107d98361078e565b91828252600193848116908160001461083b57506001146107fb575b50505050565b90919394506000526020928360002092846000945b8386106108275750505050010190388080806107f5565b805485870183015294019385908201610810565b9294505050602093945060ff191683830152151560051b010190388080806107f5565b9061023661087292604051938480926107c8565b0383610208565b1561088057565b60405162461bcd60e51b815260206004820152602860248201527f4365727469666963617465207769746820676976656e20696420616c72656164604482015267792065786973747360c01b6064820152608490fd5b81601f8201121561000e5780516108ec81610238565b926108fa6040519485610208565b8184526020828401011161000e576102d3916020808501910161051b565b91909160808184031261000e578051916001600160401b039283811161000e57846109449184016108d6565b9360208084015185811161000e578261095e9186016108d6565b9460408086015182811161000e57846109789188016108d6565b9560608101519083821161000e57019184601f8401121561000e57825194818611610a2a575b8560051b918351966109b287850189610208565b875285808801938601019482861161000e57868101935b8685106109db57505050505050505090565b845183811161000e5782019088601f19838703011261000e57865190610a00826101ed565b898301519185831161000e57610a1d878c809695819601016108d6565b81528152019401936109c9565b610a326101ae565b61099e565b15610a3e57565b60405162461bcd60e51b8152602060048201526014602482015273092dcecc2d8d2c84086deeae4e6ca40d2dcc8caf60631b6044820152606490fd5b8051821015610a8e5760209160051b010190565b634e487b7160e01b600052603260045260246000fd5b90601f8111610ab257505050565b600091825260208220906020601f850160051c83019410610aee575b601f0160051c01915b828110610ae357505050565b818155600101610ad7565b9092508290610ace565b91909182516001600160401b038111610bc7575b610b2081610b1a845461078e565b84610aa4565b602080601f8311600114610b5c575081929394600092610b51575b50508160011b916000199060031b1c1916179055565b015190503880610b3b565b90601f19831695610b7285600052602060002090565b926000905b888210610baf57505083600195969710610b96575b505050811b019055565b015160001960f88460031b161c19169055388080610b8c565b80600185968294968601518155019501930190610b77565b610bcf6101ae565b610b0c565b91909182519283516001600160401b038111610d32575b610bff81610bf9855461078e565b85610aa4565b6020948590601f8311600114610cb55792610c4c610236969784610c979560c095600698600092610caa575b50508160011b916000199060031b1c19161787555b82015160018701610af8565b610c5d604082015160028701610af8565b610c6e606082015160038701610af8565b610c7f608082015160048701610af8565b610c9060a082015160058701610af8565b0151151590565b91019060ff801983541691151516179055565b015190503880610c2b565b90601f19831691610ccb86600052602060002090565b9260005b818110610d1b57509760018560c09560069895610c4c95610c97996102369d9e10610d02575b505050811b018755610c40565b015160001960f88460031b161c19169055388080610cf5565b929389600181928786015181550195019301610ccf565b610d3a6101ae565b610beb565b805115610d4d576020015190565b50600090565b15610d5a57565b60405162461bcd60e51b815260206004820152601d60248201527f436572746966696361746520696420646f6573206e6f742065786973740000006044820152606490fdfea264697066735822122033122ce3d48eeb5841436834c44ebaaa56d7d919a68c51b9fb71efe6e231bf1d64736f6c634300080f0033",
  "immutableReferences": {},
  "source": "// SPDX-License-Identifier: MIT\npragma solidity ^0.8.15;\n\nimport \"./Institution.sol\";\n\ncontract Certification {\n    // State Variables\n    address public owner;\n    Institution public institution;\n\n    // Mappings\n    mapping(bytes32 => Certificate) private certificates;\n\n    // Events\n    event certificateGenerated(bytes32 _certificateId);\n    event certificateRevoked(bytes32 _certificateId);\n\n    constructor(Institution _institution) {\n        owner = msg.sender;\n        institution = _institution;\n    }\n\n    struct Certificate {\n        // Individual Info\n        string candidate_name;\n        string course_name;\n        string creation_date;\n        // Institute Info\n        string institute_name;\n        string institute_acronym;\n        string institute_link;\n        // Revocation status\n        bool revoked;\n    }\n\n    function stringToBytes32(\n        string memory source\n    ) private pure returns (bytes32 result) {\n        bytes memory tempEmptyStringTest = bytes(source);\n        if (tempEmptyStringTest.length == 0) {\n            return 0x0;\n        }\n        assembly {\n            result := mload(add(source, 32))\n        }\n    }\n\n    function generateCertificate(\n        string memory _id,\n        string memory _candidate_name,\n        uint256 _course_index,\n        string memory _creation_date\n    ) public {\n        require(\n            institution.checkInstitutePermission(msg.sender) == true,\n            \"Institute account does not exist\"\n        );\n        bytes32 byte_id = stringToBytes32(_id);\n        // require(certificates[byte_id].creation_date == 0, \"Certificate with given id already exists\");\n        bytes memory tempEmptyStringNameTest = bytes(\n            certificates[byte_id].creation_date\n        );\n        require(\n            tempEmptyStringNameTest.length == 0,\n            \"Certificate with given id already exists\"\n        );\n        (\n            string memory _institute_name,\n            string memory _institute_acronym,\n            string memory _institute_link,\n            Institution.Course[] memory _institute_courses\n        ) = institution.getInstituteData(msg.sender);\n        require(\n            _course_index >= 0 && _course_index < _institute_courses.length,\n            \"Invalid Course index\"\n        );\n        string memory _course_name = _institute_courses[_course_index]\n            .course_name;\n        bool revocation_status = false;\n        certificates[byte_id] = Certificate(\n            _candidate_name,\n            _course_name,\n            _creation_date,\n            _institute_name,\n            _institute_acronym,\n            _institute_link,\n            revocation_status\n        );\n        emit certificateGenerated(byte_id);\n    }\n\n    function getData(\n        string memory _id\n    )\n        public\n        view\n        returns (\n            string memory,\n            string memory,\n            string memory,\n            string memory,\n            string memory,\n            string memory,\n            bool\n        )\n    {\n        bytes32 byte_id = stringToBytes32(_id);\n        Certificate memory temp = certificates[byte_id];\n        // require(certificates[byte_id].creation_date != 0, \"Certificate id does not exist!\");\n        bytes memory tempEmptyStringNameTest = bytes(\n            certificates[byte_id].creation_date\n        );\n        require(\n            tempEmptyStringNameTest.length != 0,\n            \"Certificate id does not exist\"\n        );\n        return (\n            temp.candidate_name,\n            temp.course_name,\n            temp.creation_date,\n            temp.institute_name,\n            temp.institute_acronym,\n            temp.institute_link,\n            temp.revoked\n        );\n    }\n\n    function revokeCertificate(string memory _id) public {\n        require(\n            institution.checkInstitutePermission(msg.sender) == true,\n            \"Institute account does not exist\"\n        );\n        bytes32 byte_id = stringToBytes32(_id);\n        bytes memory tempEmptyStringNameTest = bytes(\n            certificates[byte_id].creation_date\n        );\n        require(\n            tempEmptyStringNameTest.length != 0,\n            \"Certificate id does not exist\"\n        );\n        certificates[byte_id].revoked = true;\n        emit certificateRevoked(byte_id);\n    }\n}\n",
  "sourcePath": "/Users/admin/Documents/node-apps/certificate-verifier/contracts/Certification.sol",
  "compiler": {
    "name": "solc",
    "version": "0.8.15+commit.e14f2714.Emscripten.clang"
  },
  "schemaVersion": "3.4.11",
  "updatedAt": "2023-06-01T12:07:24.438Z",
  "networkType": "ethereum",
  "devdoc": {
    "kind": "dev",
    "methods": {},
    "version": 1
  },
  "userdoc": {
    "kind": "user",
    "methods": {},
    "version": 1
  }
}