{
  "contractName": "Institution",
  "abi": [
    {
      "inputs": [],
      "stateMutability": "nonpayable",
      "type": "constructor"
    },
    {
      "anonymous": false,
      "inputs": [
        {
          "indexed": false,
          "internalType": "string",
          "name": "_instituteName",
          "type": "string"
        }
      ],
      "name": "instituteAdded",
      "type": "event"
    },
    {
      "inputs": [],
      "name": "owner",
      "outputs": [
        {
          "internalType": "address",
          "name": "",
          "type": "address"
        }
      ],
      "stateMutability": "view",
      "type": "function",
      "constant": true
    },
    {
      "inputs": [
        {
          "internalType": "address",
          "name": "_address",
          "type": "address"
        },
        {
          "internalType": "string",
          "name": "_institute_name",
          "type": "string"
        },
        {
          "internalType": "string",
          "name": "_institute_acronym",
          "type": "string"
        },
        {
          "internalType": "string",
          "name": "_institute_link",
          "type": "string"
        },
        {
          "components": [
            {
              "internalType": "string",
              "name": "course_name",
              "type": "string"
            }
          ],
          "internalType": "struct Institution.Course[]",
          "name": "_institute_courses",
          "type": "tuple[]"
        }
      ],
      "name": "addInstitute",
      "outputs": [],
      "stateMutability": "nonpayable",
      "type": "function"
    },
    {
      "inputs": [],
      "name": "getInstituteData",
      "outputs": [
        {
          "internalType": "string",
          "name": "",
          "type": "string"
        },
        {
          "internalType": "string",
          "name": "",
          "type": "string"
        },
        {
          "internalType": "string",
          "name": "",
          "type": "string"
        },
        {
          "components": [
            {
              "internalType": "string",
              "name": "course_name",
              "type": "string"
            }
          ],
          "internalType": "struct Institution.Course[]",
          "name": "",
          "type": "tuple[]"
        }
      ],
      "stateMutability": "view",
      "type": "function",
      "constant": true
    },
    {
      "inputs": [
        {
          "internalType": "address",
          "name": "_address",
          "type": "address"
        }
      ],
      "name": "getInstituteData",
      "outputs": [
        {
          "internalType": "string",
          "name": "",
          "type": "string"
        },
        {
          "internalType": "string",
          "name": "",
          "type": "string"
        },
        {
          "internalType": "string",
          "name": "",
          "type": "string"
        },
        {
          "components": [
            {
              "internalType": "string",
              "name": "course_name",
              "type": "string"
            }
          ],
          "internalType": "struct Institution.Course[]",
          "name": "",
          "type": "tuple[]"
        }
      ],
      "stateMutability": "view",
      "type": "function",
      "constant": true
    },
    {
      "inputs": [
        {
          "internalType": "address",
          "name": "_address",
          "type": "address"
        }
      ],
      "name": "checkInstitutePermission",
      "outputs": [
        {
          "internalType": "bool",
          "name": "",
          "type": "bool"
        }
      ],
      "stateMutability": "view",
      "type": "function",
      "constant": true
    }
  ],
  "bytecode": "0x6080806040523461002857600080546001600160a01b03191633179055610f82908161002e8239f35b600080fdfe6080604052600436101561001257600080fd5b60003560e01c80630334917c14610394578063086f5a141461029a5780637c0edcdf146100ae5780638da5cb5b146100855763b350ce3c1461005357600080fd5b34610080576020366003190112610080576020610076610071610bb0565b610ed0565b6040519015158152f35b600080fd5b34610080576000366003190112610080576000546040516001600160a01b039091168152602090f35b3461008057602080600319360112610080576100c8610bb0565b90604051638da5cb5b60e01b81528181600481335afa90811561028e57600091610251575b506000546001600160a01b0391908216908216036101f95760029216806000526001825260406000209160405161012381610bc6565b60405161013b816101348188610d99565b0382610be1565b81526101796040519461015c866101558160018501610d99565b0387610be1565b8383019586526101726040518098819301610d99565b0386610be1565b60408101948552805151156101b8576101b49291600291519451955192600052526101a76040600020610e2f565b9060405194859485610cc0565b0390f35b60405162461bcd60e51b8152600481018390526019602482015278496e7374697475746520646f6573206e6f742065786973742160381b6044820152606490fd5b60405162461bcd60e51b815260048101839052602a60248201527f496e636f727265637420736d61727420636f6e7472616374202620617574686f60448201526972697a6174696f6e732160b01b6064820152608490fd5b90508181813d8311610287575b6102688183610be1565b8101031261008057516001600160a01b038116810361008057836100ed565b503d61025e565b6040513d6000823e3d90fd5b3461008057600036600319011261008057336000526001602052600260406000206040516102c781610bc6565b6040516102d8816101348186610d99565b8152610317604051926102f9846102f28160018501610d99565b0385610be1565b602083019384526103106040518096819301610d99565b0384610be1565b6040810192835280515115610345576101b49051915192513360005260026020526101a76040600020610e2f565b60405162461bcd60e51b815260206004820152602160248201527f496e73746974757465206163636f756e7420646f6573206e6f742065786973746044820152602160f81b6064820152608490fd5b346100805760a0366003190112610080576103ad610bb0565b6024356001600160401b038111610080576103cc903690600401610c02565b6044356001600160401b038111610080576103eb903690600401610c02565b916064356001600160401b0381116100805761040b903690600401610c02565b90608435936001600160401b038511610080573660238601121561008057846004013561043781610c58565b956104456040519788610be1565b8187526024602088019260051b820101903682116100805760248101925b828410610b3e5750506000546001600160a01b03959250851633039050610ad35783831660005260016020526101346104a6604060002060405192838092610d99565b51610a8257855115610a3e57604051916104bf83610bc6565b85835260208301526040820152828216600052600160205260406000209080518051906001600160401b0382116107865781906104fc8554610d5f565b601f81116109ee575b50602090601f831160011461098257600092610977575b50508160011b916000199060031b1c19161782555b60208101518051906001600160401b038211610786576105546001850154610d5f565b601f8111610930575b50602090601f83116001146108bd576040939291600091836108b2575b50508160011b916000199060031b1c19161760018401555b01518051906001600160401b038211610786576105b26002840154610d5f565b601f811161086b575b50602090601f83116001146107fb5760029291600091836107f0575b50508160011b916000199060031b1c1916179101555b60005b84518110156107b25782821660005260026020526040600020855182101561079c57600582901b86016020015181549091600160401b821015610786576001820180825582101561079c5760005260206000200190518051906001600160401b0382116107865781906106638454610d5f565b601f8111610736575b50602090601f83116001146106ca576000926106bf575b50508160011b916000199060031b1c19161790555b60001981146106a9576001016105f0565b634e487b7160e01b600052601160045260246000fd5b015190508880610683565b9250836000526020600020906000935b601f198416851061071b576001945083601f19811610610702575b505050811b019055610698565b015160001960f88460031b161c191690558880806106f5565b818101518355602094850194600190930192909101906106da565b909150836000526020600020601f840160051c81016020851061077f575b90849392915b601f830160051c8201811061077057505061066c565b6000815585945060010161075a565b5080610754565b634e487b7160e01b600052604160045260246000fd5b634e487b7160e01b600052603260045260246000fd5b7fcc7604fcd5c45ed3c7605e263d6c59f75739c368ef78098126fa9f54443b314f6107eb85604051918291602083526020830190610c6f565b0390a1005b0151905088806105d7565b906002840160005260206000209160005b601f19851681106108535750918391600193600295601f1981161061083a575b505050811b019101556105ed565b015160001960f88460031b161c1916905588808061082c565b9192602060018192868501518155019401920161080c565b600284016000526020600020601f840160051c8101602085106108ab575b601f830160051c8201811061089f5750506105bb565b60008155600101610889565b5080610889565b01519050898061057a565b906001850160005260206000209160005b601f1985168110610918575091839160019360409695601f198116106108ff575b505050811b016001840155610592565b015160001960f88460031b161c191690558980806108ef565b919260206001819286850151815501940192016108ce565b600185016000526020600020601f840160051c810160208510610970575b601f830160051c8201811061096457505061055d565b6000815560010161094e565b508061094e565b01519050888061051c565b9250846000526020600020906000935b601f19841685106109d3576001945083601f198116106109ba575b505050811b018255610531565b015160001960f88460031b161c191690558880806109ad565b81810151835560209485019460019093019290910190610992565b909150846000526020600020601f840160051c810160208510610a37575b90849392915b601f830160051c82018110610a28575050610505565b60008155859450600101610a12565b5080610a0c565b606460405162461bcd60e51b815260206004820152602060248201527f41746c65617374206f6e6520636f75727365206d7573742062652061646465646044820152fd5b60405162461bcd60e51b815260206004820152602360248201527f496e73746974757465207769746820746f6b656e20616c72656164792065786960448201526273747360e81b6064820152608490fd5b60405162461bcd60e51b815260206004820152603a60248201527f43616c6c6572206d75737420626520746865206f776e6572202d206f6e6c792060448201527f6f776e65722063616e2061646420616e20696e737469747574650000000000006064820152608490fd5b83356001600160401b038111610080578201602060231982360301126100805760405191602083018381106001600160401b03821117610786576040526024820135926001600160401b03841161008057610ba3602094936024869536920101610c02565b8152815201930192610463565b600435906001600160a01b038216820361008057565b606081019081106001600160401b0382111761078657604052565b90601f801991011681019081106001600160401b0382111761078657604052565b81601f82011215610080578035906001600160401b0382116107865760405192610c36601f8401601f191660200185610be1565b8284526020838301011161008057816000926020809301838601378301015290565b6001600160401b0381116107865760051b60200190565b91908251928382526000905b848210610ca8575092806020939411610c9b575b601f01601f1916010190565b6000838284010152610c8f565b90602090818082850101519082860101520190610c7b565b92610ce8610cd9610cf693608087526080870190610c6f565b60209486820386880152610c6f565b908482036040860152610c6f565b9160608184039101528251908183528083019281808460051b8301019501936000915b848310610d295750505050505090565b9091929394958480610d4f600193601f19868203018752828b5151918181520190610c6f565b9801930193019194939290610d19565b90600182811c92168015610d8f575b6020831014610d7957565b634e487b7160e01b600052602260045260246000fd5b91607f1691610d6e565b9060009291805491610daa83610d5f565b918282526001938481169081600014610e0c5750600114610dcc575b50505050565b90919394506000526020928360002092846000945b838610610df8575050505001019038808080610dc6565b805485870183015294019385908201610de1565b9294505050602093945060ff191683830152151560051b01019038808080610dc6565b908154610e3b81610c58565b90604091610e4b83519182610be1565b818152809460208092019360009182528282209180955b858710610e725750505050505050565b82518581018181106001600160401b03821117610ebc5780855260019283928892610eac601f1983610ea4848d610d99565b030182610be1565b8152815201940196019592610e62565b634e487b7160e01b84526041600452602484fd5b60018060a01b03166000526001602052604060028160002091610f38815193610ef885610bc6565b8251610f08816101348185610d99565b85528251610f1d816101348160018601610d99565b6020860152610f3183518095819301610d99565b0383610be1565b820152515115610f4757600190565b60009056fea2646970667358221220a12ae35983a64c646ab7de08317d5206f10ae2f75e1fe74d4f3897a084cf2ee164736f6c634300080f0033",
  "immutableReferences": {},
  "source": "// SPDX-License-Identifier: MIT\npragma solidity ^0.8.15;\n\nimport \"./Certification.sol\";\n\ncontract Institution {\n    // State Variables\n    address public owner;\n\n    // Mappings\n    mapping(address => Institute) private institutes; // Institutes Mapping\n    mapping(address => Course[]) private instituteCourses; // Courses Mapping\n\n    // Events\n    event instituteAdded(string _instituteName);\n\n    constructor() {\n        owner = msg.sender;\n    }\n\n    struct Course {\n        string course_name;\n        // Other attributes can be added\n    }\n\n    struct Institute {\n        string institute_name;\n        string institute_acronym;\n        string institute_link;\n    }\n\n    function stringToBytes32(\n        string memory source\n    ) private pure returns (bytes32 result) {\n        bytes memory tempEmptyStringTest = bytes(source);\n        if (tempEmptyStringTest.length == 0) {\n            return 0x0;\n        }\n        assembly {\n            result := mload(add(source, 32))\n        }\n    }\n\n    function addInstitute(\n        address _address,\n        string memory _institute_name,\n        string memory _institute_acronym,\n        string memory _institute_link,\n        Course[] memory _institute_courses\n    ) public {\n        // Only owner can add institute\n        require(\n            msg.sender == owner,\n            \"Caller must be the owner - only owner can add an institute\"\n        );\n        bytes memory tempEmptyStringNameTest = bytes(\n            institutes[_address].institute_name\n        );\n        require(\n            tempEmptyStringNameTest.length == 0,\n            \"Institute with token already exists\"\n        );\n        require(\n            _institute_courses.length > 0,\n            \"Atleast one course must be added\"\n        );\n        institutes[_address] = Institute(\n            _institute_name,\n            _institute_acronym,\n            _institute_link\n        );\n        for (uint256 i = 0; i < _institute_courses.length; i++) {\n            instituteCourses[_address].push(_institute_courses[i]);\n        }\n        emit instituteAdded(_institute_name);\n    }\n\n    // Called by Institutions\n    function getInstituteData()\n        public\n        view\n        returns (string memory, string memory, string memory, Course[] memory)\n    {\n        Institute memory temp = institutes[msg.sender];\n        bytes memory tempEmptyStringNameTest = bytes(temp.institute_name);\n        require(\n            tempEmptyStringNameTest.length > 0,\n            \"Institute account does not exist!\"\n        );\n        return (\n            temp.institute_name,\n            temp.institute_acronym,\n            temp.institute_link,\n            instituteCourses[msg.sender]\n        );\n    }\n\n    // Called by Smart Contracts\n    function getInstituteData(\n        address _address\n    )\n        public\n        view\n        returns (string memory, string memory, string memory, Course[] memory)\n    {\n        require(\n            Certification(msg.sender).owner() == owner,\n            \"Incorrect smart contract & authorizations!\"\n        );\n        Institute memory temp = institutes[_address];\n        bytes memory tempEmptyStringNameTest = bytes(temp.institute_name);\n        require(\n            tempEmptyStringNameTest.length > 0,\n            \"Institute does not exist!\"\n        );\n        return (\n            temp.institute_name,\n            temp.institute_acronym,\n            temp.institute_link,\n            instituteCourses[_address]\n        );\n    }\n\n    function checkInstitutePermission(\n        address _address\n    ) public view returns (bool) {\n        Institute memory temp = institutes[_address];\n        bytes memory tempEmptyStringNameTest = bytes(temp.institute_name);\n        if (tempEmptyStringNameTest.length > 0) {\n            return true;\n        } else {\n            return false;\n        }\n    }\n}\n",
  "sourcePath": "/Users/admin/Documents/node-apps/certificate-verifier/contracts/Institution.sol",
  "compiler": {
    "name": "solc",
    "version": "0.8.15+commit.e14f2714.Emscripten.clang"
  },
  "schemaVersion": "3.4.11",
  "updatedAt": "2023-06-01T12:07:24.448Z",
  "networkType": "ethereum",
  "devdoc": {
    "kind": "dev",
    "methods": {},
    "version": 1
  },
  "userdoc": {
    "kind": "user",
    "methods": {},
    "version": 1
  }
}